S01C00007A335F6D6667746F6B656E5F6D6732315F763636322E73333768
S31500004000A04F012061690300710C0200F1660300F4
S31500004010A70A0A010041000004180FAC20667E00C2
S31500004020000000000000000000000000000000008A
S3150000403000000000789F0300000000000000000060
S315000040400000000000000000FFFFFFFFFFFFFFFF72
S31500004050FFFFFFFF00600F000000000000000000EF
S31500004060FFFFFFFFFFFFFFFF8000000000000000D2
S31500004070000000000000000000000000000000003A
S315000040800000000000000000987E0120987E0120BC
S31500004090A04F0120E6F103007A69030040460120A3
S311000040A04C11002000E00F0000000000A2
S31500004100A04F012061690300710C0200F1660300F3
S31500004110F9660300F5660300FD6603000000000073
S31500004120000000000000000000000000E7C70000DB
S3150000413001670300A7A7000083CB0000BFEA0000C9
S31500004140096703000967030009670300096703009D
S315000041500967030021BC02001D76020009670300FF
S315000041600967030009670300C172020009670300BB
S31500004170096703000967030009670300096703006D
S3150000418009670300096703000967030067FF00006A
S31500004190096703001B37030009670300096703006B
S315000041A00967030095390300853903000967030091
S315000041B00967030009670300096703008714030002
S315000041C03F1403003D140300990F030085140300F8
S315000041D041140300451403004314030079680300E7
S315000041E0B71403000967030009670300E9C7000065
S315000041F0096703000967030009670300C30001009C
S3150000420009670300096703000967030009670300DC
S3150000421009670300096703000967030009670300CC
S3150000422009670300096703000967030009670300BC
S3150000423009670300102510B5494A494C4A4B1B68CB
S31500004240234207D103408B420DD0521EF6D16FF0A8
S31500004250020010BD4548034202D06FF0010C201643
S315000042604FF0FF3010BD002010BD70B5404D6860A6
S31500004270E8680E46410702D518200870BD56F804B6
S315000042800B141F02E008101D241FA86044B108216A
S315000042900820FFF7CFFF0100F4D00421296070BD8C
S315000042A0042028600021211612C4162304D10C1004
S315000042B005BDE87040BCE77054301341F671312AF1
S315000042C04C01222A4BE568E1621A606060022626EC
S315000042D030300B2D0CFFF7ABFF05F0010501000395
S315000042E036201CFFF7A3FF0121204A11600DB10003
S315000042F021E16270BD2DE9F843184F3D68894614E7
S31500004300464A200A80462D0C39620122164B0020AF
S315000043103A100B1A6009E0324649464046FFF79FBD
S315000043207E501F0DD1B044B144A41B4CB108F5001A
S3150000433056760B7603A6EB0806B442ECD22646EA7E
S31500004340E70121095C10133962BDE8F283000080A1
S31500004350969800060001001C00034002081210088F
S31500004360130C1004000120034000000080B54449EE
S315000043700988444A002000F0B1FB5328A8BF522008
S3150000438002BD2DE9FE4300F072F800F054FD00F086
S315000043905EF8412200F060F800F063F8FFF7E6FFF0
S315000043A08146E0B2B04216DA3888C01C814512DB7D
S315000043B06A46E1B2404600F03CFD50B1BDF800004F
S315000043C000F08AFD9DF8020000F077FD2878401C79
S315000043D02870641CE5E735E02DE9FE4300F047F858
S315000043E000F025FD00F033F8422200F035F800F029
S315000043F038F8FFF7BBFF8146E0B2B04222DA3888D0
S31500004400083081451EDB6A46E1B2404600F00DFDEC
S31500004410B0B1BDF8000000F05FFD9DF8020000F0AD
S315000044204CFDBDF8040000F057FDBDF8060000F095
S3150000443053FD9DF8080000F040FD2878401C2870C8
S31500004440641CD9E700F0E1FA0120BDE8FE830646C8
S31500004450019400960C4B70474FF48051092000F0F0
S315000044607FBE398809484518002000F026BD04465D
S3150000447007480168074F0A6892F80580404670476A
S31500004480047D01206C5E01207C690300785E0120BA
S31500004490545F0120067D012080B501F058FAFF28FF
S315000044A005D0032803D2DFF8D417085C02BD00202C
S315000044B002BDE0B50221009101AB0022032101F00B
S315000044C0A1FD20B9BDF8040010B1012000E00020D4
S315000044D0C0B20EBDF8B5069F002400250646092F7A
S315000044E002D300200021F4BDA4460DE0A7EB000E88
S315000044F0B6441EF8010C2D0245EA1465002110EBA6
S3150000450004240CF1010C4D415FFA8CF0B842EDD356
S315000045109D4206D828BF944203D2101B63EB0501C7
S31500004520F4BDA01A65EB0301F4BD10B50268DFF80F
S31500004530501713880B8054884C8052790A7103688F
S315000045401A794FF48A53CB804A71026893799A0696
S31500004550DFF8302744BF4FF48B53CB808169137843
S3150000456039B9C088DFF8201703F0FD0308801370FF
S3150000457010BD43F002031370DFF81047816916225D
S31500004580204601F04AFF0022227010BD80B50020AF
S3150000459001F0A7FFFF2001F035FA01F0B0FF00F0AF
S315000045A0B2FE02460121DFF8D40601F07DFFDFF8F6
S315000045B0D036DFF8DC265221DFF8D80600F0BBFD46
S315000045C001F0E9FF02F0D4F802F09AF903F056F987
S315000045D003F049FE03F06AFEBDE8014000F06ABF41
S315000045E0704780B503F046FF20B905F0CBF908B94E
S315000045F003F0C0FB00F035FCBDE8014000F040BC14
S3150000460070B5034600204FF6FF72DFF88C4634F88B
S31500004610305095420ED09D4209D1B3F57C4F0ADB4E
S3150000462004EBC0056E888E4205D00D0003D0401CF9
S3150000463080B2ECE7104670BD10B50446FFF7E0FF08
S31500004640DFF858164FF6FF720B88904203D12246C8
S31500004650DFF84C1606E0DFF8401601EBC0004268B2
S31500004660DFF840161846BDE8104005F06ABADFF8D4
S315000046703806006800B1008A70471CB50446DFF8AA
S315000046802C16087800283DD005F032FB0246DFF8EC
S315000046902016022005F055FA206841880091A2896B
S315000046A04379DFF81016022005F04BFA022005F0D8
S315000046B003FA20B12068218A4088FFF7BDFFE07B1E
S315000046C028B1228ADFF8F015022005F03AFAE07CDC
S315000046D0DFF8E8150090A068A37C0278022005F0B8
S315000046E030FA217DA289A4680123521A92B221448C
S315000046F0022005F015FBDFF8C8150220BDE81C40B6
S3150000470005F019BA13BD10B504462168487901F0C1
S315000047101EF9FF281DD0DFF8AC1501EB0010217F34
S31500004720027B8A4215D1226840881188884206D0C9
S315000047304FF6FF7399420CD1B0F5004F09DA207994
S31500004740022818BF032806D11189507905F040FDCB
S3150000475008B9002010BDA07B0028204602D005F035
S3150000476085FD01E005F0B2FD00B1012010BD3EB5AA
S315000047701446227855074CBF05220322934209D2DC
S315000047800092DFF84425DFF84415022005F0D3F93E
S3150000479000203EBD089D069A28602971EA80AC601B
S315000047A0AB81207800F00100A8732178890801F018
S315000047B00101E973207801212975C00800F0010084
S315000047C06875E87B30B11A46204600F0E3FB297D88
S315000047D0891C297507992882287D421C2A75205C28
S315000047E0531C2B75A874D2B2A05CA961E87406F0BC
S315000047F076F8287701203EBD2DE9F14F84B00F46AB
S315000048009246DFF8CC549B460E9EDDF83C80284647
S31500004810DFF8C014202206F029F902950498CDF895
S31500004820048000965B46524639460024FFF79FFFF8
S31500004830DFF87494002869D0C9F80050A87CDFF826
S31500004840981408702846FFF718FF2846FFF76DFEF4
S31500004850284606F02AF930BBB8F1000F25D1042FFF
S3150000486018BF052F03D0022F18BF032F01D1012235
S3150000487000E00022E988286801910121438800931D
S315000048800388E87C00F007F998B1286881798806E2
S315000048900FD4DFF84844012121700022284600F099
S315000048A0BAF800202070012430E098F8140081073F
S315000048B02CD528684179FF2924D10026DFF8C0834A
S315000048C000F021FDF1B2814220D2F0B201F041F8B0
S315000048D00746F0B200F01BFD90B128682A8A41888D
S315000048E0384600F080FF58B12846FFF71EFE2868BC
S315000048F0477188F804702846FFF705FF00B10124C8
S31500004900761CDDE72846FFF7FEFE044600F0BEFAF9
S3150000491016220021DFF8740301F0C6FD0020C9F855
S315000049200000204605B0BDE8F08FDFF8B413087824
S31500004930401C0870FFE700F07F007047DFF8441363
S315000049400A78002814BF42F0010202F0FE020A7043
S315000049507047DFF890130870704780B1DFF8841352
S315000049600978012904D1018841F04001018070478E
S31500004970022904D102884FF6BF710A4002807047AF
S3150000498078B1DFF864130A78012A04D1DFF85C23D2
S3150000499013780B7001E0022A03D1017841F010016F
S315000049A001707047FEB5B74C2178CA0701D50020C3
S315000049B0FEBDC94A1378B74A15786E074CBFD37047
S315000049C05370B34B1D88890708D52946AF4806F0B2
S315000049D0BFFA217801F0FD012170FEBDAA4B1C88AB
S315000049E04FF6FC77A649BC4208DA009201900A46C7
S315000049F02B462146002006F091FCFEBD0090134692
S31500004A002A46204606F059FCFEBD0020CAE70146AC
S31500004A10A5480068002270B5044620790E46154662
S31500004A20002818BF01280BD1A0680178CA0601D555
S31500004A30300005D0A07B002804BFE07C0B2801D104
S31500004A40002070BD0021924A1180607DE17B002824
S31500004A500CBF0820002011B900F02FFA06E040F044
S31500004A60040000F02AFA208A00F036FAA07C00F052
S31500004A7024FA0B2000F021FAE07C00F01EFA304602
S31500004A8000F01BFA2046FFF750FD2846BDE87040AF
S31500004A9088E70022BFE770B51D46954B1C788F4E00
S31500004AA0012C01D0337813B10020307070BD0B009B
S31500004AB002D10AB1002070BD002C1EBF049C4FF627
S31500004AC057439C4206D003460A462146284600F034
S31500004AD059F900B1012070BD0000000038B5D28838
S31500004AE052240346950608464FF6FD7148BF4924F1
S31500004AF0550548BF083C150548BF083C120448BF89
S31500004B00A41E032B0ED8DFE803F00902060BC0B281
S31500004B1006F082FF02E0C0B207F0B8F9014601E0F4
S31500004B20641EE4B2084600F049F9241AE0B232BD28
S31500004B304254120A08444270704708440270110A2F
S31500004B40130C120E41708370C270704770B50C0062
S31500004B500546164608BF002003D02178FF2902D15A
S31500004B60FF20287070BD204600F036FA864288BFC6
S31500004B7006463246611C681C01F04FFC2E7070BD63
S31500004B8070B505460C00164603D1002068702970E2
S31500004B9070BD2078FF2804BF6078FF2802D12870F6
S31500004BA0687070BD204600F01CFA864288BF064633
S31500004BB03246A11CA81C01F030FC2E70360A6E701D
S31500004BC070BD2DE9F041541E0BB3042A46DC0023C8
S31500004BD0002698465FFA88F5954225D2651B00287F
S31500004BE014BF10F805C04FF0000C571E4D5DA7EB23
S31500004BF00807FF000CFA07FC05FA07F74CEA03035F
S31500004C003E4308F10108E5E7AE4224DB5B1CDDB25A
S31500004C10954223D2651B00280CBF0026465D4D5DDC
S31500004C20B542F1DA01201AE0042A10DAD500012093
S31500004C30D2006D1E00FA02F2524243FA05F1CC0789
S31500004C4046FA05F048BF1343C00748BF16439E42C5
S31500004C50E8DBB34202DA4FF0FF3000E00020BDE8A7
S31500004C60F0810021234A01E0891CC9B2535C8342CA
S31500004C70FAD350184078704700000000305F0120DA
S31500004C806C5E0120447E0120047D0120585F0120D6
S31500004C90067D0120785E0120888803000A7D0120B8
S31500004CA0F087030008880300545F0120AA570120FB
S31500004CB0108803001888030038880300448803001E
S31500004CC030EE0300D05C0120808803006488030076
S31500004CD0345F0120D8880300AE570120407E0120B2
S31500004CE0AF570120417E0120427E0120437E0120F4
S31500004CF0AD570120F8880300283808288041C00FE6
S31500004D00704710B500F009F8FF2801D1A32010BDA7
S31500004D10002104F83010002010BD0446084600F0BB
S31500004D2016BE38B500F00BF8FF2801D1A32032BD1E
S31500004D30294604EBC000BDE8344001F05CBC0446E3
S31500004D400846154600F003BE40B11C280BD01D28AE
S31500004D500CD01E2818BF1F2805D009E00B391029D2
S31500004D6006D2002070471B29FBDB01E00929F8DB8E
S31500004D708A20704770470120704701207047012044
S31500004D80704770470020704700207047002070472A
S31500004D9000207047002070470020704770470120B0
S31500004DA0704701207047B5207047002070470020EB
S31500004DB070470020704700207047704700207047FA
S31500004DC00020704770470020704784207047704766
S31500004DD070477047704770477047704700207047AC
S31500004DE070477047704700207047704707F00CBA4D
S31500004DF0032070470020704703480168087801289F
S31500004E0008BF022070470000CC5E012000207047DA
S31500004E104FF6FE720121C28181810161002202707A
S31500004E200120704770477047704700207047002088
S31500004E307047002070470020704770470020704779
S31500004E407047002070470020704700207047002000
S31500004E5070470020704700207047002070470020F0
S31500004E6070477047B5207047002070470020704794
S31500004E7070470020704770477047B52070477047ED
S31500004E8070477047002070477047704780B5002014
S31500004E904B49087007F063FA4A4A108052220021F3
S31500004EA0494801F001FB0020484908800C220021F6
S31500004EB04748BDE8084001F0F7BA10B543490A88EB
S31500004EC0522A07DA404CA054521C0A8092B2A0180B
S31500004ED0401E10BD002010BD38B50546C0B2FFF714
S31500004EE0ECFF0446280AFFF7E8FF002C18BF00284D
S31500004EF001D0204632BD002032BDF8B50746C0B20B
S31500004F00FFF7DBFF06463804000EFFF7D6FF05461F
S31500004F103802000EFFF7D1FF0446380EFFF7CDFF2B
S31500004F20002E18BF002D05D0002C18BF002801D078
S31500004F303046F2BD0020F2BDF8B5244D2B880C4654
S31500004F402646F718522F0CDA1F4F01462246F8184C
S31500004F5001F063FA2B88E4182C80A4B2A41B38193C
S31500004F60F2BD0020F2BD30B504461D4600205B1898
S31500004F709A4207DA30BD5218224412F8013C6D1EDF
S31500004F8003EB0020EAB2002AF5D130BD0423EAE79C
S31500004F900323E8E780B50223FFF7E5FF80B202BDF1
S31500004FA003460C48914200D3704710B55C5CFF2C59
S31500004FB008BF00246418641CA242A8BF581810BD7C
S31500004FC0447E0120047D0120785E0120067D0120BB
S31500004FD06C5E0120087D01200078FF2808BF0020B4
S31500004FE0704780B502220021FFF7D4FF4FF6FF720B
S31500004FF0904208BF002002BD2DE9F24F022940F37E
S315000050009580190005D0BDF800100529F7DB42F0A0
S315000050100402824601268AF80020180005D08AF884
S3150000502001301B0A8AF8023003260A9CFFF77DFC32
S315000050300AF80600761CB0B20AF80040761C4FF05B
S31500005040000BDDF8309007E0BAB24146504401F05B
S31500005050E4F9BE190BF1010B0B985FFA8BF1405C7A
S31500005060002865D000250024A046732834DC4C288F
S3150000507059F8048B1CBF5328622811D159F8047BB8
S315000050804C2806D1BDB24FF6FF70854236D00224B9
S3150000509034E0532832D1FDB2FF2D2FD001242DE06C
S315000050A06C2804D14046FFF79CFF871C26E0732836
S315000050B004D14046FFF790FF471C1FE0A0F13001E6
S315000050C00A2938BFA0F1300718D3A0F141010729FA
S315000050D02CD2A0F1370711E00027752808BF01245C
S315000050E00AD0762808BF022406D0782808BF0324F1
S315000050F002D077281AD1042459F8045BBDF80010B1
S31500005100B2B2B8B28218A218914205DA0EE00AF8D5
S315000051100050761C2D0A641EE1B2B0B20029F6D109
S31500005120B9B2002996D0B8F1000F8DD1002000E069
S31500005130B0B2BDE8F28F10B54A4C20604A480180F3
S315000051404A490A604A4A136010BD7FB50C46089961
S3150000515009AD009302951346019100F017F808E097
S315000051607FB50C4608A90092029100F00FF8019352
S315000051700023FFF741FF3D490A683D4B108019683F
S315000051804FF48A524C80CA8004B070BD0246364D38
S31500005190344E29883068704738B50346334C314859
S315000051A02568026832482988006801B0BDE83040A9
S315000051B006F0E0B80020EFE77FB500F028F806F02B
S315000051C02AF804B070BD0023F6E710B52548274B32
S315000051D002681C68264800682188BDE8104006F071
S315000051E033B87CB501921F4A1468204D2E6800948E
S315000051F01F4C3388226806F091F876BD0022F0E74E
S315000052007FB500F004F806F06DF804B070BD174CD9
S31500005210009125680293134901920B68144E2A885F
S31500005220316870470023EBE7F8B50E4D2E6884B061
S315000052300A9C03960D4F3E68358801940C4C2668EF
S3150000524002957588009506F0C9F805B0F0BD0848C6
S3150000525000687047064A13681871106841717047F4
S3150000526000000000605E012086790120645E012056
S31500005270685E0120DFF8E018F0B50A6888B0DFF84C
S31500005280DC1803A80260D1E90027DFF8D418DFF89C
S31500005290D44804A8D4E90056C0E900270A68DFF814
S315000052A0C84801A806AB0260C3E90056256803207A
S315000052B0DFF8B81802AB002408701D6000940021C6
S315000052C0DFF8AC0806AEDFF8AC2803AC02EB01123F
S315000052D0655C04AC157036F81130538034F8113023
S315000052E002AC9380655C01AB95715C5C00EBC40518
S315000052F095601DF801400125491C14735573022958
S31500005300E1DD08B0F0BDDFF8640800787047DFF82B
S31500005310641801EB0010407B00F001007047412843
S3150000532018BF422803D0432818BF442801D10120C2
S31500005330704700207047412818BF422801D101203C
S31500005340704700207047432818BF442801D1012028
S31500005350704700207047F8B515461E46069A079B0B
S31500005360044600F055FA60B1042100F058FD07002C
S3150000537007D0204601F0BAF8324629462046B847FB
S3150000538094E0F1BD2DE9FC471400814688461F468E
S315000053901CBF0A9D002D1FD0F7B128780C9B010772
S315000053A0618820794CBF4022802200F031FA98B102
S315000053B0082100F034FD824670B120790B9E01F081
S315000053C095F8009501963B46224641464846D04709
S315000053D0BDE8F34701F093B8BDE8F387F8B5069C3E
S315000053E016461A460546234600F012FAD0B12100A9
S315000053F00BD1022100F013FD040013D0284601F062
S3150000540075F831462846A0470BE0102100F007FD4D
S31500005410070007D0284601F069F82246314628469B
S31500005420B84743E0F1BD2DE9F843089C90461A467B
S315000054300646234600F0ECF908B9862016E000255A
S315000054409CB9202100F0EBFC814670B10B9F0A9CB1
S31500005450099D304601F04AF8009723462A46414600
S315000054603046C847054601F04AF82846BDE8F283AB
S31500005470F8B504462078A568002601F037F811E053
S31500005480F1B2142228685143471839882078FFF76B
S3150000549078FC0121384600F0C2FC01001CBF2078D0
S315000054A08847761C2979F0B28842E9D3BDE8F140F5
S315000054B001F025B838B50024DFF8B0560AE0DFF869
S315000054C0480A210600EB1150427BD10748BFFFF77F
S315000054D0CFFF641C2978E0B28842F0D331BD5CB5B9
S315000054E085B00A9C00268DF80800ADF80A108DF8E4
S315000054F00C30ADF80E200196ADF810400096002352
S31500005500002201A902A800F083F8019807B050BD57
S315000055107CB5069D1C4696782B0008BFD378412E95
S3150000552018BF422E06D0432E09D19A1E92B2FFF71B
S3150000553027FB16E05A1ED2B2FFF708FB11E0442EF5
S31500005540F3D034B92C0004D0D278954201D2892008
S3150000555076BD00291A4602D100F0A6FF01E000F050
S315000055605CFF002076BD10B5002301E0001D5B1C2A
S315000055709CB28C4204D204889442F7D1408810BD74
S31500005580002010BDDFF88419401A0C2290FBF2F2BD
S315000055900021DFF87C0910E00288B2F57C4FA8BF35
S315000055A000F002B80846EDE7DFF86819401A142241
S315000055B090FBF2F20021DFF8600992B2D3E710B552
S315000055C00C460188628891420DD1037B22791342F1
S315000055D009D0B1F57C4F04DBFFF7E6FF218988424D
S315000055E001D1012010BD002010BD10B514460A8857
S315000055F0E3889A420AD10288B2F57C4F04DAFFF7B3
S31500005600CBFF2189884201D1012010BD002010BDA9
S315000056102DE9F74F82B004469A460025002703E09D
S31500005620C88845197F1CFFB2DFF840150A789742F3
S3150000563080F0A380DFF83C0500EB071023780278A2
S3150000564081689A42ECD10091407BC107EAD54FF0C0
S31500005650000804E0B9F80A00451908F101080099A4
S315000056605FFA88F00A799042DCD20A685FFA88F11C
S3150000567014204843214602EB00094846FFF79FFFE6
S315000056800028E7D04FF0000B07E030790BF1010B53
S3150000569010F0300F04BFF0784519B9F808101FFA5A
S315000056A08BF08842D9D21FFA8BF20C21D9F804006C
S315000056B04A438618224631464846FFF796FF002899
S315000056C0E3D003982746344600B10460207981066A
S315000056D010D5DFF83808002105E00279930644BFAB
S315000056E0C27851180C30A042F7D3DFF8300889B2DF
S315000056F0461803E0DFF82818ADB24E19DDF83880F9
S31500005700049D4046B8F1000F1BD00195214648463E
S31500005710FFF742FF0246238879883878DFF804B815
S31500005720FFF72DFBF0B12079C1061DD5214648466D
S31500005730FFF732FF00950346798838782246D84726
S315000057401CE0DDB1214648460196FFF725FF0246DB
S315000057502388798838782E46DFF8CCB7FFF70DFB1B
S315000057600028E0D17E2009E00199CDF800A043464B
S3150000577022463046FFF7CCFE00E0862005B0BDE8A5
S31500005780F08F2DE9F84304468846164699460025CB
S315000057902179E8B2884221D2EAB2142320685A431A
S315000057A087183888404517D131000AD0802E03D19A
S315000057B0397B0A0605D40FE0402E0DD1397B4A0607
S315000057C00AD5B0F57C4F0CDB3846FFF7EDFE4845B1
S315000057D018BF5FEA090004D06D1CD9E70020BDE8B8
S315000057E0F2833846FBE7134680B507E0134680B5DB
S315000057F0402204E0134680B5802200E0002200F03B
S3150000580007F800B1012002BD80B500234022F6E76B
S3150000581070B50C4615461E4600F099F8FF2801D1D2
S31500005820002070BD06E070B50C4615461E460021E8
S3150000583000F035F82146DFF8D04604EB0010334679
S315000058402A468068BDE870409BE71346402201E087
S315000058500022FAE72DE9F84F82468B469046994694
S315000058600026FFF7D5FF08B9FF2016E00027DFF86E
S315000058700443DFF8F8522978F8B288420CD20001C6
S31500005880205C504508D04B4642465946FFF7CBFFB1
S3150000589000B1761C7F1CEEE7F0B2BDE8F28F70B562
S315000058A00022DFF8D032DFF8C4522E78D4B2B442E8
S315000058B00BD224011D5D854205D10D0007D01C4485
S315000058C0647BE50703D4521CEDE7FF2070BDD0B220
S315000058D070BD80B50021FFF7E2FFFF2801D100204F
S315000058E002BD00F061F8407B00F0010002BD70B51A
S315000058F00E4604460021FFF7D2FFFF2801D1002003
S3150000590070BDDFF8041601EB00153200687B00F06D
S31500005910010114BF40F0010000206873B14214D0A9
S3150000592076B12846FFF7A4FD0FE014220068514324
S31500005930761C0844027B01882046D20900F0BAFE94
S31500005940A868F1B202799142EFD3012070BD01211E
S31500005950A5E7DFF8B4150001085C7047F8B50C46FA
S31500005960FFF7F5FF01460020FF291FBFDFF8982546
S3150000597002EB01118968002915D0002214270D7940
S31500005980D3B2AB420ED2D6B20B687E43451C33442B
S315000059901B7B260001D11B0600E05E0648BF284699
S315000059A0521CECE7C0B2F2BDDFF85C1501EB00104B
S315000059B07047F8B50C461546FFF7C9FF01460022A9
S315000059C0FF291DD000234FF0140C01E0521C5B1C74
S315000059D0DFF8340500EB0116DFB2B0680679B7428E
S315000059E00ED200680CFB07F73844067B15B1760625
S315000059F002D4ECE73706EAD5D6B2A642E6D1F2BD26
S31500005A000020F2BD002109E010B50446012100F096
S31500005A1005F82046BDE8104005F046B82DE9F14FDF
S31500005A2088B0894604F05BFF50490A780023069047
S31500005A3005928DF80430DFF8D0A40AE00AEB0010D6
S31500005A40017B0698814214D09DF80400401C8DF815
S31500005A5004009DF804000599884258DA9DF8202034
S31500005A60FF2AEBD01046FFF772FF8DF80400FF28DF
S31500005A7054D0002756E00328ACBFD6F808B006F18C
S31500005A80080B0120009000235A46002102A8FFF7C8
S31500005A90BFFD5FEA090007D0BDF80A201AF8081012
S31500005AA03346584600F003F9641C2989A0B288429F
S31500005AB037D2A2B20C2168684A4386183379D906D0
S31500005AC0F2D41AF808208DF808202988ADF80A10B3
S31500005AD03079410628464CBF802140218DF80C10B4
S31500005AE03188ADF80E103146FFF756FDADF81000BF
S31500005AF03179F0784A07BED5D6F808B00328C0DB5E
S31500005B00DBF800B0BDE79DF82000FF289CD0B9F176
S31500005B10000F04BF9DF8200000F02EF809B0BDE884
S31500005B20F08F7F1C9DF80400F9B24FEA00180AF1C5
S31500005B30080050F8080002799142E4D20168FBB2ED
S31500005B4014204343CD182A8940F22D118A42A8BF5A
S31500005B5006F070FE0024A8E79C760300A8760300F2
S31500005B60B4760300A0760300B07603003B7E0120E6
S31500005B70247D0300D05C01207CB5044604F0AFFE12
S31500005B800546012000F0C8FC44F20306012C03D0B0
S31500005B90FF2C08BFA84227D101237F22212100F034
S31500005BA083F800F078F800F07BF801237F222221A9
S31500005BB000F07AF83020009001AB324600F070F821
S31500005BC001237F22232100F06FF8202000F064F8E3
S31500005BD0082100F066F801237F22242100F064F8F2
S31500005BE000F052F800F05DF8022000F095FC022C5F
S31500005BF003D0FF2C08BFA84240D101237F222521D4
S31500005C0000F052F800F047F8062100F03AF80123B8
S31500005C107F22262100F048F83020009001AB324662
S31500005C20062100F02EF801237F22272100F03CF800
S31500005C30202000F031F8082100F023F801237F220C
S31500005C40282100F031F800F01FF800F01AF80223BE
S31500005C507F22292100F028F82120009001AB07229D
S31500005C6000F00DF802237F222A2100F01DF82120E2
S31500005C70009001AB44F2100200F001F873BD4FF43E
S31500005C804071022000F091B92020009001AB4FF442
S31500005C908042082170471020009001AB0022704717
S31500005CA00621012000F081B901A806F0C7BE2DE942
S31500005CB0FC4104461D4628790E461746830740F1E7
S31500005CC0A58002220021684600F0EEFB04B96C466E
S31500005CD044F20308012E3AD1062F1AD1288850B96A
S31500005CE000F09AF838B92879410604D400F090F803
S31500005CF0212006F0CEFE288840450BD100F08CF816
S31500005D00002807D1287941061CD400F081F822200A
S31500005D107AE0082F7AD1288850B900F07DF838B992
S31500005D202879410604D400F073F8232006F0B1FE6A
S31500005D302888B0F5804F69D100F06EF8002865D14B
S31500005D402879410662D400F063F824205CE0022E34
S31500005D505CD1062F1AD1288850B900F05DF838B901
S31500005D602879410604D400F053F8252006F091FE68
S31500005D70288840454AD100F04FF8002846D12879B6
S31500005D80410643D400F044F826203DE0082F1AD1FE
S31500005D90288850B900F040F838B92879410604D46B
S31500005DA000F036F8272006F074FE2888B0F5804FFC
S31500005DB02CD100F031F848BB2879410626D400F0F2
S31500005DC027F8282020E0B7F5407F1FD1288807282C
S31500005DD00BD100F021F840B92879410605D40223F9
S31500005DE022467F21292006F054FE288844F210011D
S31500005DF088420BD100F010F840B92879410605D445
S31500005E00022322467F212A2006F043FEBDE8F381C5
S31500005E10012322467F2170472846FFF7B3BB30B5E2
S31500005E20047B012200230C4205D1002030BD144220
S31500005E3018BF5B1C5200D5B28D42F8D30069DBB2A5
S31500005E4050F8230030BD3949401A8003020C002166
S31500005E503748FFF788BB2DE9FE4F002700284FF093
S31500005E600108487D06D008B9022407E0012804D1BC
S31500005E70012403E008B9082400E004240E980C9DD0
S31500005E80B9460D9EDDF83CB08A46ADF80020019378
S31500005E90ADF830508DF83800244800EB8905298884
S31500005EA0BDF80000814224D1E978214221D0A978A9
S31500005EB09DF8380081421CD3E9789AF80F00CA068B
S31500005EC008D5B0B12846FFF7BEFFBAF810108142D8
S31500005ED001D00EE068B9BB4513D0BDF8300087424B
S31500005EE00FDAA9780198C15532887F1CBFB2521CBF
S31500005EF0328009F10109B9F14B0FCDDB4046BDE80F
S31500005F00FE8F4FF00008F9E7D05C012020780300EF
S31500005F10407D0300F87B03003C7D0300A05D01206B
S31500005F20005D0120A34D00009F4D0000F0760300A8
S31500005F301C7803002DE9F84785B0109D0F9F0E9C35
S31500005F400295019706468A46904699460094FEF7C2
S31500005F5012FF010003D0022803D002D310E0012073
S31500005F600EE00CBF01200020002104910390029551
S31500005F70019700944B4642465146304600F07AF966
S31500005F8006B0BDE8F087F0B585B00A9D0B9C0026EB
S31500005F9001270496039702940195009617E078B5B9
S31500005FA085B000F00BF8802304E078B585B000F0EA
S31500005FB005F8402300F05EF906B070BD0A9C002586
S31500005FC0012601930495039602940095704700F00C
S31500005FD051F905B0F0BDF0B5012785B004970A9DCB
S31500005FE00B9E0C9C00270397029401960095EEE702
S31500005FF07FB5099C089D0A9E02940024039601958C
S31500006000009410E038B584B000F006F84023FFE7AE
S3150000601000F0E2F905B030BD089C00250193039518
S3150000602002940095704700F0D7F904B070BD2DE9D1
S31500006030F84F84B0DDF8389090461C4605468A46EF
S315000060404B4622460026ADF80060FFF7E1FBB3465B
S3150000605007008DF80450ADF806A08DF80840ADF89D
S315000060600A80ADF80C904FD001A9FFF7A8FA0028D6
S315000060704AD0ADF802800024DDF83C90DDF840A05F
S31500006080BDF8008015E0B1B249450FD2FEF724FFF6
S31500006090A878FEF712FF5FEA0A0006D02879C10742
S315000060A054BF05200720FEF708FF761C08F10108FB
S315000060B0641C3989A0B288421ED2A2B20C2178682B
S315000060C04A433B888518B3F57C4F09DA288801AA2C
S315000060D02946ADF80A003846FFF787FA0028E7D0C8
S315000060E02888BDF802108842CDD20BF1010BDDE7FE
S315000060F0002005B0BDE8F08FB6B21FFA8BF006445B
S315000061001FFA88F08642F3D10120F2E72DE9F8471D
S3150000611095B04FF00009DFF850A101E009F101093F
S31500006120FFF7F1F85FFA89F1814236D2002738E0AD
S31500006130A078FFF708F9D0B104A8FEF752FF16E0E1
S31500006140002103914122029204A901910090228824
S3150000615029881AF8080000F03FF9862807D0A078A9
S31500006160FFF7E9F80028E3D004A8FEF735FF761C10
S315000061702989B0B2884213D2B2B20C2168684A4368
S31500006180841806F057FB21462846FFF705FA2179C1
S315000061904A064CBF80234023D2E716B0BDE8F087FD
S315000061A07F1C4FEA09604FEA10580AF1080050F8C0
S315000061B00800F9B202799142B0D20168FBB214200C
S315000061C043430026CD18D3E7F8B596B01D9C154677
S315000061D0042C3FDD04AE039641271C9A029705AEB8
S315000061E0019600922A4600F0F7F8060034D19DF891
S315000061F01000412818BF422804D105A8FEF7ECFE7E
S31500006200461C0BE0432818BF442804D105A8FEF716
S31500006210E8FE861C02E006F099FC0646F6B2301D42
S31500006220844217DB2846FEF757FE0020FEF745FEA0
S315000062309DF810000D4CFEF740FE208831185229BB
S3150000624008DA0B4B324605A9184400F0E6F8208818
S315000062503618268017B0F0BD2846FEF73DFE3046BC
S31500006260FEF72BFEF6E70000D05C0120067D01203C
S31500006270785E01202DE9F84F88B0129C05468946C4
S3150000628092469846002004908DF81450ADF816906A
S315000062908DF81880ADF81AA0ADF81C4000900023C8
S315000062A0002204A905A8FFF7B3F9049808B98620C7
S315000062B082E0159860B904999DF850008A7890425A
S315000062C018BF8D2078D10979C80758BF882073D5A3
S315000062D00498139E0179480726D504998868416871
S315000062E00498029181688868049901908878FEF77D
S315000062F003FD834604985B46C1788DF80010032998
S315000063000A4631462ADA02A8FEF75BFC9DF8002011
S3150000631007465B46314601A8FEF753FC012F1CBF1A
S315000063204FF0FF31884228D01698002843D100F05C
S3150000633046F8FEF786FD01003ED100F040F8FFF773
S3150000634072F8010038D10120009000233246002166
S3150000635005A8FFF75DF9010011D02DE00298FEF7C0
S3150000636030FC012809D09DF8002001985B46314693
S31500006370FEF727FC10F1010FD6D187201CE0049B05
S315000063804A4629463046FFF792FC02969DF8500091
S3150000639000944346019052464946284601F002FDC4
S315000063A000F00DF8FEF74CFD009443465246494670
S315000063B02846FFF713F8002009B0BDE8F08F0396D2
S315000063C0049843465246C1789DF8500002910094C5
S315000063D00190494628467047F0B585B01C460A9E8E
S315000063E00B9D0C9B002701978DF80800ADF80A104D
S315000063F08DF80C40ADF80E20ADF8106000972A46D7
S3150000640001A902A8FFF704F9010004D10D9911B101
S31500006410019A93780B7005B0F0BD70B5814224D215
S3150000642010441144401E491E10E011F80139121F94
S3150000643000F8013911F8014900F8014911F801592C
S3150000644000F8015911F8016900F8016993B2042BAB
S31500006450EBDA93B2002B1EBF11F8013900F80139AF
S31500006460521EF6D170BD00F00DF893B2042BFADA85
S3150000647093B2002B1EBF11F8013B00F8013B521EE0
S31500006480F6D170BD11F8013B121F00F8013B11F85F
S31500006490014B00F8014B11F8015B00F8015B11F8A4
S315000064A0016B00F8016B7047130003D00A461946CA
S315000064B006F05EBB704710B5034600E0521E90B270
S315000064C018B100F003F8F9D0001B10BD13F8010B4A
S315000064D011F8014BA04270470C480D490860002096
S315000064E0704700B1702070470020704780B500F0FB
S315000064F013F8FF2801D1A32002BD002002BD002011
S315000065007047704700BF034800787047C2D2030047
S31500006510CC5E0120D05C012080B5FFF718FAFF2879
S3150000652018BF002002BD00210170704700F071B84D
S3150000653070B5044616460D463046FFF7D7FF0020D5
S3150000654020703046A847BDE87040FFF7D8BF01224B
S3150000655047494848ECE7012247494848E8E701220D
S3150000656047494848E4E7022241494748E0E7022212
S3150000657041494648DCE7022241494548D8E701221D
S3150000658044494548D4E7022242494448D0E7F2222A
S3150000659040494348CCE780B5012006F005FC414858
S315000065A006F096FB4049087001BD80B506F010FC68
S315000065B0012805D03C480078BDE8024006F073BBD0
S315000065C001BDF0B5002400E0641C384D2E88E3B20E
S315000065D0B3420ED2E7B20C256F43354B3B441E78CF
S315000065E0864201BF5D888D421E799642ECD11846DF
S315000065F0F0BD0020F0BD80B519B906F0D5FA00202F
S3150000660002BDB1F1004F02D206F0D8FAF7E7022038
S3150000661002BDB1F5000F3CBF0902FFF7ECBF022037
S31500006620704770B505461E46FFF7CBFF04000ED037
S315000066302846FFF74EF950B1A0683146FFF7DBFF59
S3150000664028B904990598A0716171002070BD0220D7
S3150000665070BD1CB5049C0093134601940022FFF7FD
S31500006660E0FF16BD80B500230093FFF7F2FF02BDE1
S315000066708B980200385C0120DF9C0200405C012000
S31500006680F5A00200485C0120505C0120585C012006
S31500006690605C0120CD990200685C0120705C0120DD
S315000066A0785C0120747103002B7C01207C5701204B
S315000066B0F850012080B5FFF784FF20B180680021E3
S315000066C00170002002BD022002BD0022F2E77047E1
S315000066D080B57B49022003F02EFAFF20FFF794F9DC
S315000066E0FF2003F076FDFF2006F04AFF00F040F899
S315000066F0FEF799FB00207349088001BDF8B500F04C
S3150000670069F8009805B000F0010000BD18B587B023
S3150000671000226C4B1A8001A9684605F0E1FF9DF83E
S315000067200F00694C0822A070BDF80C0001A920805A
S31500006730201DFFF772FE9DF81400002200216073F1
S315000067402046FEF771FB08B010BD80B5684605F01F
S31500006750D1FF932809D15D4801680A78012A8DF88E
S31500006760002004BF02218DF800109DF8000002BD34
S31500006770F8B507F077FA002814BF0020022007F0CA
S31500006780CEFE534807F0D5FE524807F0D5FE00F07E
S3150000679021F80098C1071BD54F49022003F0CBF919
S315000067A04A4801680878012808BF022007F077FBED
S315000067B007F05AFA00F00EF8009840F080000090BA
S315000067C0684607F08BFE00F008F8032003F046F950
S315000067D005B000BD684607F077BE78B58FB005A84E
S315000067E03E49282204F042F905F0BDFD08B100201B
S315000067F01AE001A803F023F90400394D394E02D0FE
S315000068000090394B0AE005A8FEF70CFB05A901A884
S3150000681007F011FB040006D00090344B324629469F
S31500006820022003F088F9204610B070BD80B52548D7
S31500006830018841F40071018007F0C1FE48B10246AB
S315000068402B49022003F077F907F011FEBDE801405D
S315000068503EE701BD1FB504461A48008810F08F0FA9
S3150000686011D0902C02D1FFF751FF1FBD912C25D0DE
S3150000687002902048009001941F4B1A4A1F4902209B
S3150000688003F059F91FBD800504D5912C16D1FFF7E9
S315000068901FFF1FBDFFF79EFF902C0FD10098C10769
S315000068A00CD5420852000092002101910291ADF8E8
S315000068B00C10684607F012FE08F0F5F81FBD000040
S315000068C06C6C03007A790120445B0120CC5E0120C8
S315000068D0008810020070EF053C6C0300886C030012
S315000068E0B06C0300C46C0300CC6C0300E46C0300C2
S315000068F0FC6C0300646D03004C6D03002C6D0300FB
S315000069001CB5DFF8AC4A0A2200212046FFF7CCFD71
S3150000691060220021DFF8B40CFFF7C6FDA0206080DE
S31500006920052120208DF80410009001AB10222121B2
S31500006930F220FFF734FB13BD0020DFF8741A00B510
S3150000694008704FF0FF3187B00491002100238DF8C5
S315000069501800039002900191009304AA08F01AFC13
S3150000696007B000BD18B5DFF8484A207A87B0C107DE
S3150000697010D5002204928DF8182008F095FF00200B
S31500006980002100232072039102900190009304AA33
S3150000699008F000FC0020DFF8381C087008B010BDB5
S315000069A080B5FFF7C9FF0020DFF8281C087001BD7D
S315000069B02DE9F04700F00108C0F3420489469246EB
S315000069C006094509DFF8100C016806F0010605F016
S315000069D001050A685079F22826D1DFF8D47938788B
S315000069E020B109F09CFAF98888421DD1B8F1000F50
S315000069F018D009F094FAF8800120A021E207387037
S31500006A0079807C7046BF4FF47A7101FB09F1DFF89B
S31500006A10CC1B7D71DFF8BC0B06F0D0F826B187F8E9
S31500006A2004A001E0FFF788FF0120BDE8F087002001
S31500006A3070472DE9F34F8FB0074615469846DDF8A7
S31500006A4084900AA8142109F08BFA780A00F0030A48
S31500006A50C7F341108DF81800F80A00F0070BDFF8AD
S31500006A60900B002438400828DFF86C0B016808BF3B
S31500006A70A1460A79042A08BF01242B001A9D08BFE3
S31500006A800AAB05B90AAD1F9E06B90AAE109ACDF833
S31500006A90008007F0070107A809F0FEFA002854D085
S31500006AA0DFF8501B012003F04CF800F0F1F84CD150
S31500006AB0BAF1010F49D09DF82400C0B1022844D193
S31500006AC00022082107A802F0ABFF00283DD107F0FD
S31500006AD01800182839D0ABF10500022835D39DF8E7
S31500006AE0180068B9F8060BD47CBB85202BE0079804
S31500006AF058B310F1070FEAD310F1010F25D1E6E7DD
S31500006B001E9A20981C9904921B9B9DF818200190B0
S31500006B100091CDF814900396029507A9384609F01E
S31500006B2034FE38B1DFF88808417888070DD5FFF7BD
S31500006B3003FF0AE0380708D509F05BFBFF2808BF0A
S31500006B40002C02D18920FDF762FF012011B0BDE8BB
S31500006B50F08F2DE9F0438FB08146884616461D46D4
S31500006B60169C0AA8142109F0FBF904B90AAC00F036
S31500006B708FF84ED1189F2946179A199DF02F49D0A4
S31500006B80F32F61D100228DF82420079200293CD1F1
S31500006B900AF020F880453AD1DFF8345A2878DFF831
S31500006BA0104810B1207A810764D505F0DEFB0B385A
S31500006BB040F0100004AA01238DF810000021019274
S31500006BC0009303910291F32307AA012008F0E2FA49
S31500006BD00120207205F0C9FB06F10B0188420BD09B
S31500006BE001200B3600FA06F10022032008F0A5FD6D
S31500006BF0207A40F0FD0002E0207A40F00200207288
S31500006C0041F28831284605F0D9FF012033E0FFF72D
S31500006C10A9FE2FE019F007008DF8180008BF0491AF
S31500006C2001D000F02BF809F0D5FF804503D100F024
S31500006C3036F8F0231AE00020002100230390029189
S31500006C400190009304AA13E0F72F03DAA7F1B0032B
S31500006C50102B0FD219F003008DF8180008BF04910D
S31500006C6001D000F00BF800F01AF83B4604AA012008
S31500006C7008F090FA00200FB0BDE8F08302218DF8ED
S31500006C8018108DF819200822214604A8FFF7C5BB65
S31500006C90DFF8440901680A685079F2287047002035
S31500006CA000216A1C0390029101922B780093704791
S31500006CB0002070472DE9F0470446626888460021A7
S31500006CC092B24046FDF734FF207C08F1020530B948
S31500006CD0A26800212846FDF730FF2D1D07E0022897
S31500006CE005D1082204F1080100F09EF80835207C41
S31500006CF0022804BF607C05F8010B6168880403D58F
S31500006D00A28A00F096F8AD1C606841040FD5A07DFC
S31500006D10002105F8010BA26928462D1DFDF70DFF80
S31500006D20102204F11C0100F07FF8103507E0800600
S31500006D3005D5A26900212846FDF7FFFE2D1D207905
S31500006D404FF00C0A41060ED500F05EF800F061F82F
S31500006D5005D100F067F800F06AF800F04EF87F1CE5
S31500006D60F9B20229F2DB6068C10517D500F04CF8CC
S31500006D70FAB20AFB02F204F12C018E183378022BC8
S31500006D8008D1728800F055F8B288AD1C00F051F8B1
S31500006D9000F033F87F1CF9B20229E9DB04F1440064
S31500006DA0017805F8011B227902F01802182A1CBF87
S31500006DB0407805F8010B6268100403D5120C00F048
S31500006DC038F8AD1C6068C10312D500F01DF800F05C
S31500006DD020F809D100F026F800F029F899F800000B
S31500006DE0AD1C0A3089F800007F1CF9B20229EEDBDF
S31500006DF0A5EB080188B2BDE8F08799F80000AD1C44
S31500006E00401C89F8000070470027A94605F8017B59
S31500006E107047FAB20AFB02F204F12C018E1833789D
S31500006E20032B70470822B11C2846FFF7F6BA728971
S31500006E30083500212846FDF77BBE2DE9F84F0F46A1
S31500006E40B6B000F00701C0F3C1008DF80410009041
S31500006E509346984607A814210026002509F080F8D5
S31500006E60DFF874170968BBF1000F087908BF0DF148
S31500006E701C0B00284DD109684879F2283CD10FA98E
S31500006E80E8B209F03BF9002836D19DF83C00FF280E
S31500006E9018BF761C6D1CE8B20428F0DD9DF80001D1
S31500006EA0F4B2DFF8545906900098DFF85099DFF8ED
S31500006EB050A960BB9DF804103A46CDF800805B46A9
S31500006EC00CA809F0E9F8002800F07F800CA809F06A
S31500006ED06CF90646FF2822D000200122FF230590E8
S31500006EE00490039202930194009000F074F80FA9A5
S31500006EF0304609F003F900286BD1288809EB000118
S31500006F000FA8FFF7D7FE2988401828805BE0009875
S31500006F1001285AD19DF80001F6B2B04209D30021EA
S31500006F2005910491039106998B2202910194009296
S31500006F3047E00020059006980021FF220491039265
S31500006F4002900194009100F046F800270024B8460C
S31500006F509DF800B10FA95FFA88F009F0CFF8002874
S31500006F6037D19DF83C00FF2815D07F1CFAB2934517
S31500006F7011D221A90FA8FFF79DFE064628883118D1
S31500006F8052290ED2324621A94844FFF746FA2888EC
S31500006F90641C36182E8008F101085FFA88F104296E
S31500006FA0D8DD89F80640FDF730FD74280DD10020A4
S31500006FB00590039006980021FFB204910290019774
S31500006FC0009100F008F8FDF720FD012037B0BDE87C
S31500006FD0F08F0020FAE753460B2221210120FEF70D
S31500006FE0BFB8F2282DE9F04F4FF0000AA7B008BF4E
S31500006FF02129D0464CD1112A02BF802B3098002877
S3150000700046D1319D052D43DD1120FDF765FFDFF8E3
S31500007010E84726880027DFF8E497361DB6B2B34660
S315000070206946F8B209F06AF830BB9DF80000FF28FF
S315000070300FD012A96846FFF73DFE804630188542FC
S315000070401CDB424612A909EB06004644FFF7E5F9A8
S31500007050B6B27F1CF8B20528E2DBA6EB0B065FEAA8
S315000070600A000ED10020FDF728FF4320FDF725FF7B
S31500007070B0B2FDF731FF06E000200AE04FF0890AC2
S31500007080EBE7FDF71AFF20884FF001083618268037
S31500007090404627B0BDE8F08F2DE9F04F8BB0C44EC7
S315000070A0307868B10A93187A002804BF1B68002B51
S315000070B006D0199CE02C18BFE22C01D0179B0BB10F
S315000070C0012013E1DDF874901C9DDDF868A0DDF861
S315000070D05480149F8DF824208DF82510834609F0DE
S315000070E079FD9DF825100690189807919DF82410B3
S315000070F002900A98CDF820A0CDF814900495039438
S3150000710001970091437A024601684BEA071040EA6C
S31500007110881444F4006008F062FFFEF798F804460D
S31500007120F22020716071052009F076FE707910B1A9
S3150000713000F012F80DE09DF82400A0F10C05E0889F
S31500007140A57240F00200E0800A980BF0A5FA00F064
S3150000715088F800F039F9B3E7F1880020FEF74EB859
S315000071602DE9F84F8AB005461C46207A002804BF50
S315000071702368002B73D030B9236813F1070F02D3AD
S3150000718013F1010F6BD102280AD10023D8B2205C7B
S3150000719018B95B1CDEB2082EF8DBDBB2082B5ED01A
S315000071A0169800285BD1179E237A3000159818BFD1
S315000071B043F008037E2D18BF7F2D03D143F40073DF
S315000071C000B10420149D43EA8013DFF8E4912F01F7
S315000071D047F4006799F805003B43ADF826300F46A3
S315000071E08DF82420DDF868A0DDF87080DDF874B035
S315000071F090B109F0EFFC00F03AF8002E14BF202001
S31500007200052009F009FEFEF722F800F0D9F8B9F8D2
S315000072100610FFF7A2FF20E009F0DCFC00F027F8DB
S31500007220FEF715F800F0CCF89DF82410A1F10C0536
S31500007230C188857241F00201C18036B17F0900F034
S31500007240B9F83F0E2037B8B200E0052009F0E4FD9A
S3150000725020460BF021FA00F004F800F0B5F8012002
S3150000726044E00146EAB24FF6FD70FDF7DBBF06903B
S315000072709DF864001899CDF820A003909DF824008D
S315000072800797CDF814B0CDF81080029101950090C3
S31500007290637A2168BDF82600224608F0A0BE00E009
S315000072A000BF2DE9F84F8AB0DDF85080DDF854E0D4
S315000072B0DDF858C0179FDDF86090199EDDF868A0CC
S315000072C01B9D1C9CDDF874B007950894CDF824B07E
S315000072D0CDF818A00596CDF810900397CDF808C004
S315000072E0CDF804E0CDF80080FFF73AFF0BB0BDE81B
S315000072F0F08F2DE9F84F8AB02D4E3478002C1EBF42
S31500007300347A04F00304012C4FD008257E28159802
S31500007310149C08BF4FF40275800140EA04108DF8F2
S3150000732024200F4640F400602843ADF8260070790B
S31500007330DDF860B0DDF86480DDF868A01C9DDDF83E
S31500007340749068B109F046FC00F041F8FDF77FFF44
S3150000735000F036F8202009F05FFDFFF7FDFE22E081
S315000073601E4609F037FC00F032F8FDF770FF00F01A
S3150000737027F87F099DF8241000F01CF8A1F10C04F1
S31500007380C1883F0E847241F00201C1802037B8B235
S3150000739009F042FD30460BF07FF90146E2B24FF6A6
S315000073A0FD70FDF73FFF00F00FF801209EE700009B
S315000073B0FC6F012007F00607C7F103077F07704738
S315000073C0F221017141717047002009F025BD069038
S315000073D09DF82400CDF820A007970090BDF8260060
S315000073E0CDF814900495CDF80C80CDF808B0019432
S315000073F000230022002108F0F2BD2DE9F84F9AB0D3
S315000074002B9892460F4602461C46FF2A00F0D9806A
S3150000741048214A43DFF8EC3319680D1DAB58091DA6
S3150000742043F400738B5043F48063AB5008A908F013
S3150000743065FE002840F0C580079494F80890002166
S315000074404FF00C0808FB01F208A8104490F82C0035
S31500007450002814BF032849F0080903D0022808BFF2
S3150000746049F02009491C0229ECDB9DF82400299DDE
S31500007470279C01062499259848BF49F0100949EA36
S315000074808112E02D42EA002040F4A0401FFA80F964
S3150000749018BFE12D03D1DFF87023107810B10CB1BD
S315000074A049F400698DF818A0289E01B95646DDF802
S315000074B0B4B0DDF8B0A009F08DFBFF210591049072
S315000074C0CDF80CB0CDF808A00195009607987F0975
S315000074D0437A02460168484607F0060708F044FD6D
S315000074E0C7F103077F079DF818A03F0E07F1200597
S315000074F04FF00009079FAAF1090B08FB09F108A83C
S31500007500084400F12C063078002818BF03280ED155
S31500007510FDF79DFEF221002C0171417114BF202060
S31500007520052009F079FC7189FFF717FE1DE0022896
S315000075301DD1FDF78CFEFFF743FFC18880F80AB026
S3150000754000F04EF814BFA8B2052009F065FCB0881B
S315000075504FF6FF71884204BF38460BF09DF801468E
S3150000756070885FFA8BF2FDF72EFEFFF72DFF09F10B
S315000075700109B9F1020FC0DB9DF82400010620D5F0
S31500007580FDF765FEFFF71CFFC18880F80AA000F032
S3150000759027F814BFA8B2052009F03EFC099881041B
S315000075A048BFBDF8348003D438460BF075F88046E2
S315000075B038460BF071F852464146FDF704FEFFF7D8
S315000075C003FF01201BB0BDE8F08F0000087001200A
S315000075D07070012068700120545F01200071020064
S315000075E0002C41F00201C1809DF86410C172704701
S315000075F0080002002C9F0300012070472DE9F84F78
S3150000760006460C468048017A9EB01546C80703D543
S315000076109DF8B410E32966D19DF8A0000B930028CD
S3150000762002BF79490878002810D1184608F0BDFD38
S31500007630FF280BD00CA908F061FD002853D10D9846
S31500007640410450D49DF8460000284CD1002E8DF8F8
S31500007650286018BF7C2E05D07F2E44D16A49087851
S31500007660002840D0684908788DF82A408DF82950BE
S31500007670299C2A9D2B9EDDF8B090DDF8B8A02F9F9F
S31500007680DDF8C080DDF8C4B0002862D0280003D041
S3150000769000F087F8FFF700FD9DF828007F2804BF5B
S315000076A09DF8A000032803D100F064F803214AE006
S315000076B09DF8B400E0282CD020D3E22814D002D3C1
S315000076C0E32816D01AE09DF8A010E120059000F0FE
S315000076D061F89DF82800CDF824B000F045F800F0D8
S315000076E053F8FFF7DCFD3CE000F05DF8FFF7D8FD4E
S315000076F037E000F058F8FFF7FCFD32E09DF828105F
S315000077007C291AD1A0F1E4020C2A24BFB038102833
S3150000771023D29DF8B4009DF8A0100590CDF824B0B2
S31500007720009100F021F800F02FF80B9B9DF829201E
S315000077309DF82A109DF8280008E07F290DD100F059
S3150000774019F89DF8A01000F025F87E20FFF708FD37
S3150000775007E09DF8B400E22803D000F022F8FFF716
S315000077604CFE1FB0BDE8F08FCDF820800797CDF80E
S3150000777018A070479DF8B400CDF824B0CDF820804D
S315000077800797CDF818A00590CDF8109003960295AE
S315000077900194704700910B9B9DF829209DF82A10B3
S315000077A070479DF8B4009DF8A01005900B9B0091C2
S315000077B09DF829209DF82A109DF82800CDF824B0C0
S315000077C0CDF820800797CDF818A0CDF81090039635
S315000077D0029501947047002800D0704710B50A4CF6
S315000077E0207AC10707D508F05FF800202072BDE8AF
S315000077F01040FFF7B7B810BD067D0120785E012066
S31500007800389F03008C540120FC6F0120912800D082
S31500007810704780B500F02EFE18B9BDE801400BF0A8
S315000078207DB801BD1CB5059C1CB1049C009403F0F9
S3150000783099FD13BD30B50246DFF8BC080023DFF81A
S31500007840BC5803E0D45C5B1C604068438B42F9DBA8
S3150000785030BD0246084614232D2105F0EFB80A462E
S31500007860014614232D2005F014B9902800D0704746
S3150000787080B50BF079F8BDE801403FE330B585B03F
S315000078800024DFF87C586946E0B2FFF7E2FF9DF876
S31500007890010038B19DF8000020B91820604301218D
S315000078A028440174641C0E2CEDDB00F027FB05B0A8
S315000078B030BD2DE9F04F00249FB0A046A346A14657
S315000078C0002505A9E8B2FFF7C4FF0BF096F81822C9
S315000078D06A43DFF82C188E183268821A9DF8150054
S315000078E000280FD09DF81410002923D1BDF82010D0
S315000078F04FF47A7359438A4208D3317C41B9BDF8B3
S315000079002210002900F0B6804B439A42C0F0B280A4
S3150000791004A90391BDF81C1041220EAB02920193FB
S3150000792000919DF81A30BDF81820BDF81610FEF724
S3150000793053FD002840F09E809DF81000FDF7EFFCF7
S3150000794020B10EA8FDF748FB401C03E09DF810008F
S3150000795005F0FCF85FFA80FA0AF10302DCB120793F
S315000079609DF815306188834204BFBDF816308B42FE
S315000079700FD19DF81A30DB095B4504BFBDF81C30FA
S31500007980434506D1DFF87C371F88D2B2D21991451C
S3150000799040DA00F07DF8FDF75AFC04469DF81A001F
S315000079A0DFF8641700915FEAD01BBDF81C20BDF814
S315000079B0161014BF002008200A23FDF7C6FB9DF809
S315000079C015004FF48A51E1802071BDF81C804FF0FC
S315000079D0FF0900270AA9F8B204F05EFA002802BFE0
S315000079E09DF829009DF81510884202BFBDF82A00AF
S315000079F0BDF81610884209D19DF835109DF828006B
S31500007A002246FDF76BF8484598BF81467F1CF8B2C1
S31500007A100228DFDDBDF81800FDF75EFA9DF81000BC
S31500007A20FDF74BFA51460EA8FDF786FA0020307492
S31500007A300AF0E3FF3060002000909DF810000EABC6
S31500007A405246412818BF42280AD1AAF10101C9B2FB
S31500007A500DF13900FFF7EEFE00906B46042201E0BF
S31500007A60092A07D20020C6E90200194606F10800D5
S31500007A70FEF7D3FC6D1C0E2DFFF623AF1CB16188FB
S31500007A80207900F005F800F039FA1FB0BDE8F08F54
S31500007A9010B50C46FCF700FD08B9032C0BD1DFF836
S31500007AA06C06FDF779FBB42808BFFDF783FBBDE83C
S31500007AB01040FDF78ABB10BD2DE9F04F87B0054693
S31500007AC0687D00262C7D0028DFF83C1600912F6883
S31500007AD007BF08204FF0400800204FF080082A8A90
S31500007AE007237988FDF731FB8DF80580AA89A1B2B5
S31500007AF0C81C90427BDAA868641C415C8DF80610AD
S31500007B00A1B2FDF747FA80469DF80600A41C10B105
S31500007B10012852D05BE0A868A1B2641C425CA1B205
S31500007B20A41C8DF80420AA894FF0000AFDF732FA4A
S31500007B30074600F066F881469DF80400FDF791F8C7
S31500007B4060B99DF8040005F001F8AA898346A86883
S31500007B505B46A1B2FDF707FA82465C44298A28688B
S31500007B609DF805300091418840794246FDF7B7FC03
S31500007B7000281FBF80789DF8041088428D2727D1E2
S31500007B80286841798DF80910286841889DF8050014
S31500007B90ADF80C80ADF80A108DF80E00298AADF804
S31500007BA01470ADF81690ADF81010CDF818A002A814
S31500007BB000F0FEF9070099D00AE000F022F89DF8DF
S31500007BC0052003464146284600F0A4FAF2E7852739
S31500007BD03846FDF772F99DF806000126FDF76DF9A6
S31500007BE04046FDF779F9852F7FF480AF03E016B99B
S31500007BF00020FDF762F9FCF708FF012007B0BDE899
S31500007C00F08FAA89A868A1B2A41CFDF7C3B92DE913
S31500007C10F04786B00746787D3D7DDFF8EC140028F6
S31500007C2000913C683A8A07BF08204FF040080020C0
S31500007C304FF0800809236188FDF787FA13E0398A37
S31500007C40386843460091418840794A46FDF747FC2B
S31500007C5004001FD18620FDF730F90020FDF72DF92D
S31500007C604846FDF739F9BA89A9B2CB1C9A4254DBCA
S31500007C70B8686D1C0024465CA9B2FDF78BF9AD1CF3
S31500007C808146002EDBD0012E04D08520FDF715F9A4
S31500007C903046E3E74FF0000A01A95FFA8AF0FFF7E2
S31500007CA0D8FD9DF80400B04201BF39689DF8050073
S31500007CB04A7990421ED1BDF806004A88904204BF18
S31500007CC0BDF80800484515D19DF80A00404502BF99
S31500007CD0BDF80C003A8A90420CD19DF8040000B31E
S31500007CE0BDF81000FA88904202BF9DF8120009798B
S31500007CF0884216D00AF1010A5FFA8AF00E28CBDB19
S31500007D008B20C3E75FFA89F0FDF7D7F84FEA192908
S31500007D10641E2BE0BDF81400A3E7FCF776FE0120F5
S31500007D202BE10020FDF7C9F83046FDF7C6F84846B6
S31500007D30FDF7D2F816B1012EECD094E7002C92D0C4
S31500007D40A078FDF7BAF8BDF81000FDF7C5F8BDF844
S31500007D501200FDF7C1F8A078FCF783FF002882D156
S31500007D60A07804F0F3FE0446DDF81490E0B2002893
S31500007D70C8D178E710B50024E0B200F001F9641C20
S31500007D80E0B20E28F8DB0021DFF884030170002042
S31500007D9010BDB12180B50E2802DA00F003F90021EA
S31500007DA0084602BD2DE9F04387B006460F469046C9
S31500007DB099460E9C002502A9E8B2FFF74AFD9DF8F8
S31500007DC00800002804BF9DF80900B0420FD1BDF895
S31500007DD00A00B84204BFBDF80C00404507D19DF823
S31500007DE00E00484504BFBDF81000A04206D06D1C29
S31500007DF0EAB20E2ADFDB07B0BDE8F0830F9F002052
S31500007E002C460190109D384604F0A0FE412F0146F5
S31500007E10284618BF422F08D1FDF7DEF80146681C38
S31500007E20FFF708FD019001A80421E4B218256C4370
S31500007E30B34E00912644D6E90223FCF74BFB0446D9
S31500007E400D463846FCF70DFF012803D1002D08BF6B
S31500007E50002C07D10028CED1002106988D4201D8EA
S31500007E608442C8D30122327400F048F8C3E710B543
S31500007E7042784B789A4202BF42884B889A421AD17E
S31500007E8082888B889A4202BF82798B799A4212D174
S31500007E9002890B899A4202BF02780C78A2420AD163
S31500007EA03AB182898B899A4202BF807B897B88425C
S31500007EB001D1012010BD002010BD30B585B00446AB
S31500007EC0002500F096F921466846FFF7D0FF78B9FD
S31500007ED000F08BF9F5DB002500F08BF99DF8010029
S31500007EE030B16D1CE9B20E29F6DBFF2005B030BDBE
S31500007EF02146E8B2FFF7B3FCE8B2F7E72DE9F84709
S31500007F004FF0FF3985B0C8460025DFF8F4A14FF4DD
S31500007F107A7700F06EF99DF8010008B39DF800002D
S31500007F20F0B9BDF80C60BDF80E400AF066FDEBB284
S31500007F3018214B437E437C435AF8031053444A4668
S31500007F40411A187C18B18E4204D3721A05E024B186
S31500007F508C4201D2002200E0621A424598BF904648
S31500007F6000F043F9D5DB6A4818F1010F03D041460A
S31500007F70FEF741FB01E00021017006B0BDE8F08785
S31500007F8018B585B004466946FFF763FC00228DF8F4
S31500007F90012069462046FFF762FC6846FCF736FF7B
S31500007FA006B010BD80B5FFF7EBFFBDE80140A5E7C1
S31500007FB02DE9F04186B005462889FF260127009065
S31500007FC0AB79AA8869886878FDF789FA08B98620A6
S31500007FD08EE0E88920B1A989884238BF8720F7D387
S31500007FE0002401A9E0B2FFF734FC9DF804109DF8C7
S31500007FF00500002904BF6978884213D1BDF8061030
S315000080006A88914202BFBDF80810AA88914209D138
S315000080109DF80A10AA79914202BFBDF80C102A8970
S31500008020914214D0002802BFF0B2FF282646641CF5
S31500008030E0B20E28D5DB3446E8894FF6FF71884258
S3150000804007D117B9E0B2FFF7ADFF002050E00027D7
S31500008050F2E70026002804BFA88988420AD1142224
S31500008060294601A8FEF7D9F901A80AF089FC08B14A
S3150000807001270126E0B2FF2808BF892038D017B3B0
S3150000808000208DF804006978E7B20E2F8DF80510F0
S315000080906888ADF80600A888ADF80800A8798DF8BC
S315000080A00A002889ADF80C000DDA18204743DFF8DE
S315000080B050800AF0A2FC48F8070008F108020020E8
S315000080C03A44C2E900003EB9A889ADF81000E88933
S315000080D0ADF812002869059001A8FCF797FE050087
S315000080E005D101A9E0B2FFF7BAFBFFF707FF284663
S315000080F006B0BDE8F0810000C59D1C81930100011A
S31500008100A8580120067D012074EE030025780000A2
S31500008110006201202DE9F84785B007469A46FF26FA
S31500008120012400258846914600F063F89DF800007A
S31500008130012801BF38689DF80110427991421BD190
S31500008140BDF802104288914204BFBDF804104145B3
S3150000815012D19DF80610494502BFBDF808103A8AAB
S31500008160914209D1BDF80C10FA88914202BF9DF8E0
S315000081700E10007981420FD09DF80100002802BF41
S31500008180F0B2FF282E4600F030F8CDDB3546E8B2D7
S31500008190FF2803D1892027E00024F8E7C4B1012095
S315000081A08DF80000396848798DF8010039684A88E9
S315000081B0ADF804808DF80690ADF80220398AADF846
S315000081C00810F888ADF80C00396808798DF80E00AB
S315000081D0ADF810A06846FCF719FE040003D1694605
S315000081E0E8B2FFF73CFB2046C7E66D1CE8B20E2856
S315000081F070476946E8B2FFF72CBB30B585B0044638
S315000082000025FFF7F6FF21466846FFF730FE38B92E
S31500008210FFF7EBFFF5DB2046FFF74FFE05B030BD5D
S315000082200020FBE780B5A0B080787D22694604F087
S31500008230B3F901001CBF694602F055FD21B000BD2F
S315000082400A46014638B510460AF02AFD0446FF28BC
S3150000825001D1182032BD0BF037FC054620460AF046
S315000082609CFC284632BD80B502F03EFC0120BDE8EC
S31500008270024010B5040014BF084800200BF00EFDA4
S3150000828050B1002C0346064914BF064A064A02208E
S31500008290BDE8104001F04FBC10BD0000389C030043
S315000082A0F49B0300209C03002C9C030080B5522203
S315000082B000215248FEF7F8F85222FF215048BDE847
S315000082C00840FEF7F1B82DE9F641044601F0F0FA50
S315000082D00646204601F0FCFA9DF8001022464FF6AD
S315000082E0FF7516B3019B212A1B781EDA4220454EE4
S315000082F0022B09DA4343F01830F81230AB4214D09F
S315000083005B1C20F8123010E00FD1002306EB420769
S3150000831000FB03F637F806E0AE451CBF0EF1010E72
S3150000832027F806E05B1C022BF2DBDFF8D4C0334EE5
S315000083303CF8123036F812709F428041C043C00F9D
S31500008340AF421CBF7F1C26F81270092CBCF81470B3
S3150000835018BF0B2C08D1B6F814C001EB0C0EBE45A5
S315000083600FDA6144B1820DE01D2C0BD1B6F83AE06C
S31500008370BCF83AC001EB0E08E04502DA7144718799
S3150000838000E0B78236F81210994203D310B920469E
S31500008390FCF722FD00201C49C6B28A5DA24204D029
S315000083A0401CC6B2112EF7DB17E0112E15DA02F0CB
S315000083B098FA0446154801788C4203DBE0211448FC
S315000083C00BF0D6FD222044431249081930F8161046
S315000083D0A9421CBF491C20F81610BDE8F3815222A1
S315000083E000210648FEF760B85222FF210448FEF736
S315000083F05BB8034A22F8101070470000347301205E
S3150000840088730120007401204CB10300BC57012081
S315000084103CB10300DC730120DFF8D01AC873704743
S3150000842010B5DFF8CC4A2068427B112A04D0B0216F
S31500008430DFF8180C0BF09CFD20684121417310BD3C
S3150000844080B5022002F053FA02F05AFA00F03CFA24
S31500008450DFF8F40B137B042B03D1017C491D017457
S3150000846004E04FF47A71183004F0A8FBBDE801402F
S3150000847002F047BADFF8780A0168487B33281CBF48
S315000084804328532801D101207047002070472DE969
S31500008490FF410BF079FE08F09FFC00284FD0DFF873
S315000084A04C4A00202076DFF8A80B01790C3001F049
S315000084B061F8607D18B10BF0F9FF002060750021AE
S315000084C0217300F042F80CF056FF0BF0ADFE0025CC
S315000084D0DFF8808BDFF8186ADFF87C7B3978E8B242
S315000084E088422CD202F00CFA30684FF6FF724188AF
S315000084F0914218BF012007D100220821001D01F07A
S315000085008FFA401E8041C00F94F8281001F0010137
S31500008510014210D0306808224188ADF8081000F0FA
S3150000852010F80A230A2201F06BF802230B224146B7
S3150000853000200DF019F902F0E4F96D1CCEE7BDE854
S31500008540FF81011D6846FDF768BF10B5DFF8A00979
S315000085500068017B032918BF042906D141884FF61C
S31500008560FF72914208BF032008D001F0C0F904460B
S3150000857001F0C1F9214603F018FC022001F0C3F90D
S315000085800DF0A2F900F0C6FEBDE810400CF01EBFCB
S3150000859038B5DFF85849E07300214FF6FF7001F057
S315000085A0FDF8DFF84C592968487B032818BF0028D6
S315000085B01ED0332818BF432814D101F09DF828682F
S315000085C0017B032918BF042906D103214173E07BEF
S315000085D0BDE8324002F0F3B9E07B02F0F0F9BDE805
S315000085E03140B2E721204873BDE8314006F04AB871
S315000085F031BD10B500F068F90020DFF84C4A507321
S315000086004FF6FE7008F0EAFA4FF6FF7008F0EEFA41
S3150000861001F072F8E07BBDE8104002F0D0B900002E
S315000086207FB50446E07A1522DFF8C458029094F923
S315000086300A100320019123892FA1009323460DF0F0
S31500008640C2FA2968487B70B9208901F0C1F80AD0BE
S31500008650DFF8082A10780B2805D102F053F910B973
S3150000866002F052F910B1702004B070BD2868017D87
S31500008670880708D508F0AEFA4FF6FE72904203D18D
S315000086800DF0D9FA00E00020214600F022FF060096
S315000086900DD12868017D88074CBF0220012000F01B
S315000086A0F0FE002101200DF009FD060001D0304644
S315000086B0DAE7DFF8DC1B087808B10EF050FE00227E
S315000086C00821204601F0ACF930B1042120460EF015
S315000086D0B9FE08B1A520C7E7DFF8B80B017800207E
S315000086E0DFF82C2CE08121746261204600F04EF9FF
S315000086F0064602F0C2F8DAE74238705742420000F6
S3150000870038B504462346182200F0F8FFDFF838098A
S31500008710002180F82010220002D0FF2C02D1012176
S31500008720017507E00122A50002756D1C29022030A3
S3150000873004F044FA00F0EEFD002032BD0020DFF820
S31500008740081981F82000DBE738B588B004460D46E5
S31500008750686916220790297C0691E8890590297B8D
S315000087600491E87A039095F90A10032002912B8967
S31500008770CDF800500BA1019323460DF024FA0120F9
S315000087800BF0BCFE287B00280CBF4FF6FE7008F0ED
S3150000879021FA2B462246014609B00120BDE83040A9
S315000087A096E0000042423870574242425742440027
S315000087B02DE9F0410E46DFF8385729688046144601
S315000087C0487B1F4600284BD1200049D0042C47DCAB
S315000087D0DFF8880801780B2942D102F093F80028C7
S315000087E03ED102F091F808B1042C39DB387B03281E
S315000087F016D14FF6FE718E4214D1012C08BF002609
S3150000880010D0022C2CD108F0E5F94FF6FC71884205
S3150000881002DA08F0DFF901E00DF00DFA064601E094
S31500008820012C1DD0B8F1000F0CD0387B0328204650
S315000088300CBF01210021012C18BF00200DF03EFCC9
S31500008840010026D13946304600F043FE010020D112
S3150000885002F052F802F037F820B102F055F808B1EC
S31500008860702016E02868407B332818BF532803D0B1
S315000088700020DFF878168873204600F002FEDFF845
S31500008880101A087820B102F03FF808B90EF067FD1B
S315000088900020BDE8F08138B50446DFF8AC57082261
S315000088A02146281DFDF7B9FD207B0328A8BF00201F
S315000088B0287028789421E973002800F005F80CBF89
S315000088C001203120507331BDDFF824160A68704745
S315000088D010B51C46FFF76CFF01002BD1207B032847
S315000088E0204602D1BDE8104050E0FFF7D4FFDFF884
S315000088F0FC0500218181DFF8F84520684FF001036F
S31500008900817B480905D1DFF8200C027803FA01F1D2
S3150000891008E001F01F0140F0180003FA01F10522FA
S3150000892041EAC061052006F008FF010002D0226876
S315000089300021517310BD38B50446DFF8B4552078D0
S315000089402968887301F099FF2968DFF8240C0A7BEF
S315000089502189825C60890FF05CF8040004D09420C1
S31500008960FFF716FE204632BDDFF880459420E073FF
S31500008970022001F0BBFF00F004F803202074002061
S3150000898032BDC82104F1180004F018B910B5044628
S315000089900022082101F044F808B1012010BD08F0BA
S315000089A019F900224FF6FF7100F0C0FD217C204628
S315000089B000F0E0FD6269E189207C0CF0B5FFDFF88C
S315000089C0300501680A7B012A08BF0EF00FF9FFF790
S315000089D0BCFD002010BD7CB5DFF81455296804469F
S315000089E0487B002802BFDFF8741608780B2801D0F0
S315000089F0702076BD0BF08BFDDFF8F0642CB10222FF
S31500008A00214606F12800FDF708FD684600F09EFEA7
S31500008A1008B1932076BD9DF80030142200F06EFE5A
S31500008A2000F0F2FD010061D19DF8000000F029FD83
S31500008A302868007B012818BF022807D0032818BF22
S31500008A40042838D1002000F0C7FEA0B300F0F3FDE3
S31500008A502868007B032814BF04280FF0A8F8FFF746
S31500008A6074FD01200FF0C4F801003FD12868007B97
S31500008A70032818BF04280ED196F828108A0708D5AF
S31500008A800522DFF88C18012000F046F801002CD0F2
S31500008A9076BD032801D0042827D1DFF8B845022384
S31500008AA00B22214601200CF05FFE207841071CD5E1
S31500008AB00BF0B2FC19E02968132000224873727388
S31500008AC028684FF00102817B480908BF02FA01F1CC
S31500008AD007D001F01F0140F0180002FA01F141EA47
S31500008AE0C0610522072006F028FE002076BDFF2281
S31500008AF012E0000038B50446104603280D4618BF9C
S31500008B00042801D0022032BD00F0BBFC29462046D5
S31500008B105FF0FF02BDE838402DE9FC418046DFF8F2
S31500008B20D00300680D461646017B012940D0477BDD
S31500008B30022F07D0032F3BD15FEA080102D1007D47
S31500008B40810735D4332000F0DEFE0BF01DFB15F057
S31500008B50784F294612BF0522DFF8CC090278052096
S31500008B6006F0EBFD0446A8B9DFF8DC743873012083
S31500008B700BF0C4FC08F036F878805FEA080014BFF2
S31500008B80022001203870381D00F0F7FD00207873B0
S31500008B90BE7302E0384600F0B6FE5FEA08003146D2
S31500008BA0284602D00FF046F803E00FF042F800E046
S31500008BB070240194009543465FF02C0203A1032024
S31500008BC00DF001F82046BDE8F6810000424244421D
S31500008BD00000000038B5044609F06AFF0546204645
S31500008BE00FF04FF82C1820460FF056F94FF6FF51AC
S31500008BF001402046BDE834400FF055B9FEB50546A4
S31500008C0007F0E8FF0646BA4C28782168887301F019
S31500008C1034FE6889002100F0C1FD00F013FF60B149
S31500008C20300003D04FF6F8718E4206DB0DF003F8E4
S31500008C30216806464A889042F8D0304607F0CEFFB3
S31500008C40288907F0D3FF06208DF808002068DFF892
S31500008C502019027B8B5C002101918DF8093000916F
S31500008C604088022302AA01210FF0AAFA0646FF282D
S31500008C7004D11820FFF78CFC1820FEBD20689B4D00
S31500008C80418830460FF03EF8287802281CBF30464F
S31500008C90FFF7A0FF00F063F80746304609F07DFFB6
S31500008CA0CFB19420E873022001F020FE2068017BFA
S31500008CB0042908D1C82105F1180003F07FFF03201D
S31500008CC028740020FEBD4FF4167105F1180003F05C
S31500008CD075FF0020F4E79420FFF75AFC0120FEBD43
S31500008CE078B587B00C4616461D4630B920460FF0BB
S31500008CF02DFC03A90EF041FA03A80C990190072355
S31500008D008DF8096001208DF80830360A8DF80B10B1
S31500008D1000908DF80A60042302AA012120460FF074
S31500008D204FFA0646FF2818D021460EF0EBFF15B97C
S31500008D303046FFF74FFF0D9808B930460DE0204644
S31500008D400EF054FA18B130460FF02EFC01E000F098
S31500008D5006F8304609F021FFFF2008B070BD00225A
S31500008D60002130460FF061BF2DE9F34F83B08246F4
S31500008D7014461D4600274FF6FF7954B120460FF0E2
S31500008D805AFA66784FF0010B8046760806F001061F
S31500008D9005E008460FF01FF8BB460026804600F0A7
S31500008DA0E4FB087B032818BF042800F09C809DF88C
S31500008DB010006D1CE9B20AF092F80546400800F072
S31500008DC001008DF80900280600F0CFFB8DF808A0F9
S31500008DD058BF45F080054A7B022A04D1434A107DDC
S31500008DE050EA0A0101D1022729E0404607F0A1FE18
S31500008DF0ADF800009DF8100003210EF03CFF8146FF
S31500008E0008B94FF0010930000CBF4FF0050A4FF0CA
S31500008E10010ABBF1000F03D0201D0FF03DF801E061
S31500008E20BDF800000146CDF8009053462A4640465C
S31500008E300EF0BDF800F0CCFC814608BF0127DCB17E
S31500008E409DF8080018B9484600F0C2FC02D1201D62
S31500008E500FF022F8012101910146009733464A4658
S31500008E604046FFF73DFF9DF8090050B94FF6FF71E8
S31500008E70404610F0B8F904E03A46494640460EF03E
S31500008E80A1FD87BB9DF8090028B14146484610F070
S31500008E90CEF910F01BFA30001EBF48464FF6FF71A0
S31500008EA088420BD00FF052FBDFF8A8190A684BF680
S31500008EB0FF7132F810300B4022F810309CB107F0E9
S31500008EC089FE0EB1002405E09DF80810002914BFA4
S31500008ED003240124014643464A46204605B0BDE820
S31500008EE0F04F10F099BB05B0BDE8F08F6C7601200D
S31500008EF0587601202DE9FC4705460C4601A90020BD
S31500008F000860904620460EF0C6FE0646DFF8487911
S31500008F10290007D00FF08FF9814630460FF080F90F
S31500008F20824604E020460EF056FF8146BA460020EF
S31500008F30009004234246214601A809F0CCFE0DF11B
S31500008F4005000EF0A9FF80469DF80740280006D0D0
S31500008F50082239465046FDF7AEFA00286FD1DFF8F1
S31500008F60FC783968C87E10B17078820712D528005F
S31500008F7010D0487B022808BF002C0BD1404607F0D2
S31500008F802DFE0CF0F8F9992300F0B7FB992001F0BB
S31500008F9016FD54E000F056FD002818BF002C03D043
S31500008FA09420FFF7F5FA4AE000F04CFD002846D081
S31500008FB048460FF0A9FFFF2801D0290004D13868E0
S31500008FC04946408810F033F910F080F938684A466F
S31500008FD01D4C4188404600F0A9FA1D4890F9021040
S31500008FE0090261853868417B012916BF31291121A3
S31500008FF043214173022001F079FCDFF8640801681F
S31500009000FFF7C0FC0EF0D3FD002020743968C87E3F
S3150000901020B904F1180003F0C7FD0EE02DB17078F9
S31500009020820702D5FFF733FA07E0087B042804D14C
S315000090300521FFF7A7FC09202074AD21E17301F09B
S315000090401CFCBDE8F38700006C76012094980000B4
S31500009050A4760120FE770120BC570120E1570120AC
S315000090602DE9F04F8DB005460EF015FE82460EF046
S315000090705DFE009028460EF0AEFE814602AB05224C
S3150000908005A9284610F0FAFD8046022820D0284679
S315000090900EF0F7FD00999DF80820DFF8C077081854
S315000090A08618F1B22846F41C09F019FF4FF6FF7B2B
S315000090B001280ED0022813D0042800F0C680062806
S315000090C01CD0072876D0082829D07C2800F0898073
S315000090D0DBE0F3B2002229460020FFF745FED4E08C
S315000090E03868417B012902BFDFF87827107800280D
S315000090F003D1F2B22946FFF7FDFEC6E048460EF060
S3150000910021F8014658451CBF48460EF027FC386832
S31500009110417B022902D148460EF07BFDB5E0711C69
S31500009120C9B2284609F08EFF8246E1B2284609F008
S3150000913089FF0446B61DF1B2284609F083FF0646AC
S315000091405845EBD00EF033FD3868417B132908D122
S3150000915000F071FA28460EF03EFE0146204610F059
S3150000916066F83868407B022818BF13281CD13046A1
S3150000917007F034FD504607F039FD0021002000F0CD
S31500009180F9F94946204600F009FBDFF8DC06C0780D
S31500009190DFF8D8160F28B4BF401C0F20087000F067
S315000091A0B9F83868417B13296FD12322427306F040
S315000091B085FB6AE000980121504409F071FD0446E0
S315000091C000230022214601200EF02FFD0028204614
S315000091D059D009F0E2FC05AA414628460BF0A4F94D
S315000091E053E0284609F064FCF6B2801941786529F7
S315000091F004BF80786D2848D1DFF874160A68E0B29B
S31500009200515D884241D20822494603A8FDF705F977
S315000092106B460022E1B228460EF0AAFEA8BB9DF8D6
S315000092200000FF2831D0DFF84C460120207001F005
S3150000923062FB9DF8001003A80EF0E0FC01F061FB54
S31500009240002020709DF800001DE028460EF0E2FD8B
S3150000925004460FF25060008800210191ADF80A0023
S31500009260009102230DF10A02012120460EF0A8FF0B
S315000092700546FF2809D021460EF044FD0021284668
S315000092800AF050F9284609F088FC0DB0BDE8F08FC9
S31500009290D45701207C7E012038B5022001F027FB3F
S315000092A001F02EFBDFF8BC4500202076DFF8AC5538
S315000092B007F092FD28B12968C87E10B9FFF7E7F8D4
S315000092C020E007F089FD10B900F0BCFB48B1207C16
S315000092D038B1FFF756FB207C411E21740AF011FAC3
S315000092E010E02868417B132909D000F0ABFB30B9A8
S315000092F02868407B11281CBF4328412802D1E07B07
S31500009300FFF746F9F4E10020DFF8581508747047B6
S3150000931000F8FF0710B501F002FBDFF84845FF280B
S3150000932003D0207D10B1012000E000200EF01EFACF
S3150000933000206080201D08220021BDE81040FDF7B6
S31500009340B3B82DE9F84389460546DFF818450121EB
S31500009350DFF8148584B01746617340460BF0B1F808
S3150000936004F0C4FE00281ED1012D01D028001BD117
S3150000937000974B46262295A103200CF024FC01F011
S31500009380BAFADFF8F40404683CB1012D08BF06F010
S3150000939035FC39464846A04703E03946484603F0BF
S315000093A000FA01F0AEFA5FE0DFF8B0643068407BA7
S315000093B023280DD100F09BFA044600F09CFA2146C2
S315000093C002F0F3FC022000F09EFA0AF02DFF4BE0BB
S315000093D0002F49D121281CBF0428532802D105F0AB
S315000093E051F941E000F02EFBF0B10BF083F828B9FB
S315000093F0207B00280CBFAB2094202AE011F033F923
S3150000940040460BF05EF828B140F2AC610FF28440A2
S315000094100AF0AEFD20780028404602D1FFF78BFA0D
S3150000942022E0FFF7EBFB1FE03068417B132916D1E2
S3150000943000F0E2F8BDF8000007F0D8FB00F0FBF8FA
S315000094403068017B032918BF042905D133214173F4
S315000094509620FFF79DF807E0FFF777F804E0042D64
S3150000946004BF484611F091FF4FF400600DF0E9FC8F
S3150000947010B90FF03AFC08B10AF088F805B0BDE85B
S31500009480F08338B50446DFF8D4532868017BA1423F
S3150000949003D00473204601F08BFA04F036FD40B188
S315000094A01CB9002004F02DFD0EE0012004F029FD7A
S315000094B000E01CB12868017B042905D101F0EAF916
S315000094C0FF2808BF012000D00020BDE832400AF086
S315000094D02FBB38B505460C46E07A10F04BFEFF2848
S315000094E001D18A2032BD94F90A0000F0B7FA08B11A
S315000094F08B2032BDDFF86403E17A02689173A17AAA
S315000095000068C173284607F069FB4FF6FE70854276
S315000095100CBF4FF6FF70208907F068FB2089DFF843
S3150000952044134880002032BDD557012038B50C467B
S31500009530154607F053FB0CF04DFB2946204600F07C
S315000095402DF90AF0D7FF30B1C748C0780F28ACBF55
